:100000000C9480000C94A8000C94A8000C94A800F8
:100010000C94A8000C94A8000C94A8000C94A800C0
:100020000C94A8000C94A8000C94A8000C94A800B0
:100030000C94A8000C94A8000C94A8000C94A800A0
:100040000C944E050C94A8000C941C050C94F6041A
:100050000C94A8000C94A8000C94A8000C94A80080
:100060000C94A8000C94A8004E414E494E49545996
:10007000494E46CDCCCC3D0AD7233C17B7D1387773
:10008000CC2B329595E6241FB14F0A000020410089
:1000900000C84200401C4620BCBE4CCA1B0E5AAED3
:1000A000C59D7400000000250028002B0000000002
:1000B00000240027002A0000000000230026002959
:1000C0000004040404040404040202020202020301
:1000D000030303030301020408102040800102040B
:1000E000081020010204081020000000080002018E
:1000F0000000030407000000000000000000980555
:1001000011241FBECFEFD8E0DEBFCDBF22E0AAE7AB
:10011000B1E001C01D92A43AB207E1F711E0A0E0FE
:10012000B1E0E4E1F2E202C005900D92AA37B10716
:10013000D9F710E0C0E8D0E004C02197FE010E948A
:10014000F60ECF37D107C9F70E943E060C9408116E
:100150000C940000CF92DF92EF92FF920F931F93C7
:10016000CF93DF936C017A018B01C0E0D0E0CE1514
:10017000DF0589F0D8016D918D01D601ED91FC91DB
:100180000190F081E02DC6010995892B11F47E01C3
:1001900002C02196ECCFC701DF91CF911F910F9143
:1001A000FF90EF90DF90CF900895FC01918D828DAC
:1001B000981761F0828DDF01A80FB11D5D968C91BB
:1001C000928D9F5F9F73928F90E008958FEF9FEFC6
:1001D0000895FC01918D828D981731F0828DE80F82
:1001E000F11D858D90E008958FEF9FEF0895FC013C
:1001F000918D228D892F90E0805C9F4F821B910909
:100200008F739927089586EB91E00E94F70021E013
:10021000892B09F420E0822F0895FC01848DDF01F1
:10022000A80FB11DA35ABF4F2C91848D90E0019669
:100230008F739927848FA689B7892C93A089B18958
:100240008C9180648C93938D848D981306C0028862
:10025000F389E02D80818F7D80830895EF92FF9256
:100260000F931F93CF93DF93EC0181E0888F9B8DD9
:100270008C8D981305C0E889F989808185FD24C09B
:10028000F62E0B8D10E00F5F1F4F0F731127E02E1E
:100290008C8DE8120CC00FB607FCFACFE889F989FB
:1002A000808185FFF5CFCE010E940D01F1CF8B8DAE
:1002B000FE01E80FF11DE35AFF4FF0820B8FEA8930
:1002C000FB898081806207C0EE89FF896083E889AD
:1002D000F98980818064808381E090E0DF91CF9113
:1002E0001F910F91FF90EF900895CF93DF93EC0152
:1002F000888D8823C9F0EA89FB89808185FD05C046
:10030000A889B9898C9186FD0FC00FB607FCF5CF7F
:10031000808185FFF2CFA889B9898C9185FFEDCFC7
:10032000CE010E940D01E7CFDF91CF91089580E0CB
:1003300090E0892B29F00E94030181110C940000A8
:100340000895833081F028F4813099F08230A1F053
:1003500008958730A9F08830B9F08430D1F48091C5
:1003600080008F7D03C0809180008F778093800014
:10037000089584B58F7702C084B58F7D84BD0895BC
:100380008091B0008F7703C08091B0008F7D809303
:10039000B00008951F93CF93DF93282F30E0F90129
:1003A000E751FF4F8491F901EB52FF4FD491F901CE
:1003B000EF53FF4FC491CC23C9F0162F81110E9437
:1003C000A101EC2FF0E0EE0FFF1FED55FF4FA591BF
:1003D000B4918FB7F894111105C09C91ED2FE09561
:1003E000E92302C0EC91ED2BEC938FBFDF91CF910D
:1003F0001F910895CF92DF92EF92FF920F931F9378
:10040000CF93DF9390919A029F3F39F48EBD000005
:100410000DB407FEFDCF8EB544C0E82EC7E0D0E096
:10042000D12C01E010E0DD0C60E080919A020E9486
:10043000CA01B8010C2E01C0660F0A94EAF76E21BA
:1004400080919C020E94CA0161E080919A020E9400
:10045000CA0120919B0230E0F901E751FF4F8491DE
:10046000F901EB52FF4FC490F901EF53FF4FF490A5
:10047000FF2071F081110E94A101EF2DF0E0EE0F3D
:10048000FF1FE954FF4FA591B491EC91EC2129F4A1
:10049000219708F0C8CF8D2D04C08D2D8160D82EF6
:1004A000F7CFDF91CF911F910F91FF90EF90DF90E9
:1004B000CF900895CF93DF9390E0FC01EB52FF4F74
:1004C0002491FC01EF53FF4F8491882361F190E068
:1004D000880F991FFC01E355FF4FC591D491FC0192
:1004E000ED55FF4FA591B491611109C09FB7F894E4
:1004F0008881209582238883EC912E230BC0623063
:1005000061F49FB7F8943881822F80958323888384
:10051000EC912E2B2C939FBF06C08FB7F894E881E7
:100520002E2B28838FBFDF91CF9108953FB7F8948A
:1005300080917F0190918001A0918101B091820111
:1005400026B5A89B05C02F3F19F00196A11DB11D2E
:100550003FBFBA2FA92F982F8827820F911DA11D69
:10056000B11DBC01CD0142E0660F771F881F991FA6
:100570004A95D1F708952FB7F89460917B01709157
:100580007C0180917D0190917E012FBF0895089597
:100590008CBD9DBD0895CF93DF93C62FD82FD06813
:1005A00080919A028F3F39F48091530290915402C6
:1005B0000E94C80203C061E00E94CA0160E080910D
:1005C0009D020E94CA018D2F0E94FA018C2F0E9469
:1005D000FA0161E080919D02DF91CF910C94CA01F4
:1005E000FF920F931F93CF93DF93162FF72E042FB5
:1005F000C82FCF7780919A028F3F39F480915302B0
:10060000909154020E94C80203C061E00E94CA0196
:1006100060E080919D020E94CA018C2F0E94FA0125
:10062000C12FDF2D100F1C1729F08FEF0E94FA0148
:100630008993F9CF61E080919D02DF91CF911F9165
:100640000F91FF900C94CA01CF93DF931F92CDB707
:10065000DEB7198241E0BE016F5F7F4F81E00E94EB
:10066000F0026981607F636081E00E94CB020F909D
:10067000DF91CF9108958F929F92AF92BF92CF92C8
:10068000DF92EF92FF92CF93DF9300D01F92CDB70E
:10069000DEB760E089E00E94CB02198241E0BE0132
:1006A0006F5F7F4F80E00E94F00269816F77606426
:1006B00080E00E94CB020E9496024B015C015AEF3F
:1006C000C52ED12CE12CF12C0E949602DC01CB012D
:1006D00088199909AA09BB09883E9340A105B1056B
:1006E00058F021E0C21AD108E108F10888EE880E1E
:1006F00083E0981EA11CB11CC114D104E104F104D3
:1007000019F719821A821B8243E0BE016F5F7F4F87
:100710008CE00E94F0026981862F90E0A0E0B0E0BA
:10072000BA2FA92F982F88272A81822BBA2FA92F79
:10073000982F88272B81822BA7FDBF6FBC01CD018D
:1007400025E095958795779567952A95D1F70E942D
:100750004B0C20E030E040E05CE30E94AA0C0F90DC
:100760000F900F90DF91CF91FF90EF90DF90CF909F
:10077000BF90AF909F908F900895009769F0FC0113
:1007800001900020E9F73197AF01481B590BBC01DC
:1007900086EB91E00C94AA0080E090E008958F929F
:1007A0009F92AF92BF920F931F93CF93DF93CDB7DA
:1007B000DEB7A1970FB6F894DEBF0FBECDBF19A26A
:1007C000423008F44AE08E010F5D1F4F842E912CB9
:1007D000A12CB12CA50194010E94D40EE62FB901E1
:1007E000CA0101501109EA3014F4E05D01C0E95C6E
:1007F000D801EC93232B242B252B61F7C8010E94F1
:10080000BD03A1960FB6F894DEBF0FBECDBFDF913A
:10081000CF911F910F91BF90AF909F908F900895AF
:100820004F925F926F927F928F929F92AF92BF9200
:10083000CF92DF92EF92FF926B017C01B42E9B016D
:10084000AC010E94CF0E882319F086E191E027C009
:1008500026013701E89477F82FEF3FEF4FE75FE786
:10086000C301B2010E94CF0E81110DC02FEF3FEFE7
:100870004FE75FE7C301B2010E94440C18161CF455
:100880008AE191E00CC02FEF3FEF4FE75FE4C70133
:10089000B6010E94CA0E181684F48EE191E0FF9012
:1008A000EF90DF90CF90BF90AF909F908F907F9010
:1008B0006F905F904F900C94BD032FEF3FEF4FE789
:1008C0005FECC701B6010E94440C87FDE6CF20E033
:1008D00030E0A901C701B6010E94440C87FF11C096
:1008E000E091B601F091B7010190F081E02D6DE249
:1008F00086EB91E009954C01F7FAF094F7F8F09443
:1009000002C0812C912CA12C60E070E080E09FE37C
:10091000AB1441F020E030E040E251E40E94290EA7
:10092000A394F6CF9B01AC01C701B6010E94BD0D97
:100930002B013C010E949B0E6B017C010E94490C23
:100940009B01AC01C301B2010E94BC0D2B013C0113
:100950004AE0C701B6010E94CF037C01E80CF91CF4
:10096000BB2069F0E091B601F091B7010190F081F0
:10097000E02D6EE286EB91E00995E80EF91EDB2C86
:10098000DD2021F120E030E040E251E4C301B2017A
:100990000E94AA0C2B013C010E949B0E4B01A12C32
:1009A000B12C4AE0C501B4010E94CF03E80EF91E44
:1009B000C501B4010E94490C9B01AC01C301B20105
:1009C0000E94BC0D2B013C01DA94DACFC701FF90E5
:1009D000EF90DF90CF90BF90AF909F908F907F90DF
:1009E0006F905F904F9008950E94F3101F920F92A6
:1009F0000FB60F9211242F933F934F935F936F93F2
:100A00007F938F939F93AF93BF93EF93FF9386EB67
:100A100091E00E940D01FF91EF91BF91AF919F91E5
:100A20008F917F916F915F914F913F912F910F9097
:100A30000FBE0F901F9018951F920F920FB60F9236
:100A400011242F938F939F93EF93FF93E091C6010F
:100A5000F091C7018081E091CC01F091CD0182FD40
:100A600012C090818091CF018F5F8F732091D00150
:100A7000821751F0E091CF01F0E0EA54FE4F958FDC
:100A80008093CF0101C08081FF91EF919F918F9161
:100A90002F910F900FBE0F901F9018951F920F92DD
:100AA0000FB60F9211242F933F938F939F93AF9381
:100AB000BF9380917B0190917C01A0917D01B091C9
:100AC0007E0130917A0123E0230F2D3720F4019627
:100AD000A11DB11D05C026E8230F0296A11DB11D61
:100AE00020937A0180937B0190937C01A0937D01F8
:100AF000B0937E0180917F0190918001A09181014E
:100B0000B09182010196A11DB11D80937F01909348
:100B10008001A0938101B0938201BF91AF919F9119
:100B20008F913F912F910F900FBE0F901F901895AE
:100B30000F931F93CF93DF93E6EBF1E013821282C2
:100B400088EE93E0A0E0B0E084839583A683B7832A
:100B50008AE091E09183808385EC90E0958784879B
:100B600084EC90E09787868780EC90E0918B808B77
:100B700081EC90E0938B828B82EC90E0958B848B60
:100B800086EC90E0978B868B118E128E138E148ECE
:100B9000E3E5F2E086E5808381E08183EAE9F2E043
:100BA00087E0808384E0838386E0818385E082839D
:100BB000C1E6D2E089E592E09D8F8C8F8DE592E0D1
:100BC0009B8F8A8F85E592E09F8F8E8F18AE18AA33
:100BD00019AA1AAA1BAA80E090E0AFE7B3E48CAB95
:100BE0009DABAEABBFAB84E690E0A0E0B0E08CA7DD
:100BF0009DA7AEA7BFA7198E188E80E090E0AAE748
:100C0000B3E488839983AA83BB8340E050E068E41F
:100C100072E44C835D836E837F8340E050E060E04C
:100C200071E4488759876A877B878C879D87AE8761
:100C3000BF8780E090E0A0EAB0E4888B998BAA8B14
:100C4000BB8B80E090E0A0EAB2E48C8B9D8BAE8BF6
:100C5000BF8B0E94BB020CA51DA52EA53FA5DC01E4
:100C6000CB01801B910BA20BB30B88A399A3AAA362
:100C7000BBA3DF91CF911F910F910895CF93DF9385
:100C8000CDB7DEB72A970FB6F894DEBF0FBECDBF43
:100C9000789484B5826084BD84B5816084BD85B557
:100CA000826085BD85B5816085BD80916E00816063
:100CB00080936E0010928100809181008260809309
:100CC000810080918100816080938100809180000B
:100CD0008160809380008091B10084608093B10036
:100CE0008091B00081608093B00080917A00846030
:100CF00080937A0080917A00826080937A0080915C
:100D00007A00816080937A0080917A008068809375
:100D10007A001092C10061E082E00E945A02E091E4
:100D2000C601F091C70182E08083E091C201F09199
:100D3000C3011082E091C401F091C5018FEC808362
:100D40001092CE01E091CA01F091CB0186E0808340
:100D5000E091C801F091C901808180618083E091B8
:100D6000C801F091C901808188608083E091C80149
:100D7000F091C901808180688083E091C801F09181
:100D8000C90180818F7D808382E291E00E94BD0352
:100D900086E391E00E94BD0389E391E00E94BD03D8
:100DA00086E391E00E94BD0361E082E00E945A0266
:100DB00061E080919D020E945A0261E080919D0253
:100DC0000E94CA0180919A028F3F71F061E00E94F7
:100DD0005A0261E080919C020E945A0260E0809178
:100DE0009B020E945A0233C01FB7F894809183017E
:100DF000811127C0EBECF0E08491EFEDF0E09491ED
:100E0000E82FF0E0EE0FFF1FE355FF4FA591B491DF
:100E1000EC91E92321F461E08AE00E94CA0161E0DB
:100E20008AE00E945A028CB580618CBD8CB58064CA
:100E30008CBD61E08DE00E945A0261E08BE00E946F
:100E40005A02809183018F5F809383011FBF60E00E
:100E500082E00E94CB0260E180E00E94CB020E940F
:100E600024030E9424030E94BB026093AA01709392
:100E7000AB018093AC019093AD0180E090E0A0EADB
:100E8000B1E48093550290935602A0935702B09319
:100E900058028093AE019093AF01A093B001B0933C
:100EA000B10110929102109292021092930210924C
:100EB0009402C12CD12C9AE7E92E94E4F92EC09229
:100EC0009502D0929602E0929702F0929802809159
:100ED000990200917D0210917E02D8018D909D9023
:100EE000AD90BC90882309F44EC0A7019601C501BE
:100EF000B4010E94CA0E181634F4F801C082D182DF
:100F0000E282F3820FC020E030E0A901C501B40104
:100F10000E94440C87FF06C0D8011D921D921D92AD
:100F20001C9213978090850290908602A090870271
:100F3000B0908802C0909502D0909602E0909702FF
:100F4000F0909802A7019601C501B4010E94CA0E53
:100F5000181684F0C0909102D0909202E090930213
:100F6000F0909402A7019601C501B4010E94440CBF
:100F700087FF3CC0C0928502D0928602E092870231
:100F8000F092880233C08092850290928602A092ED
:100F90008702B0928802E0917B02F0917C0280810E
:100FA0009181A281B3818093890290938A02A09358
:100FB0008B02B0938C0220E030E04AE754E4C50194
:100FC000B4010E94CA0E1816ACF220E030E0A9016C
:100FD000C501B4010E94440C87FF08C0109285022D
:100FE00010928602109287021092880281E080930C
:100FF0009902222423948FE1382E86EB91E00E94FF
:10100000F7002091A501181619061CF4222309F4F3
:1010100097C2222309F441C0E5E8F1E001900020E5
:10102000E9F7BF016558714080E090E00E94291007
:101030008C01009731F0FC01108265E871E00E949C
:1010400001118FE591E00E94BD030115110521F00A
:10105000C8010E94C20A03C060E070E0CB0142E018
:101060000E94100486E391E00E94BD030115110562
:1010700021F0C8010E94C20A03C060E070E0CB0109
:101080006093AE017093AF018093B0019093B10172
:101090001092A501C8010E94910F0E943B0360932A
:1010A0005D0270935E0280935F0290936002809174
:1010B0009902882309F407C10E94BB0269837A83DD
:1010C0008B839C838091810290918202A091830204
:1010D000B091840249815A816B817C81481B590BF4
:1010E0006A0B7B0B80918D0290918E02A0918F02F2
:1010F000B0919002481759076A077B0708F4E3C0CC
:10110000E0917B02F0917C0280809180A280B3808C
:10111000E0917F02F0918002A501940160817181CC
:10112000828193810E94BC0D2B013C0120917102B0
:101130003091720240917302509174020E94AA0C85
:101140002091850230918602409187025091880259
:101150000E94BD0D6B017C01609385027093860235
:1011600080938702909388020091950210919602D5
:10117000F0919702FA8720919802298798014F2FC2
:1011800059850E94CA0E181664F4C801AA85B9854B
:101190008093850290938602A0938702B093880281
:1011A00020C08091910290919202A0919302B091FF
:1011B00094028D839E83AF83B8879C01AD01C701E4
:1011C000B6010E94440C87FF0CC0CD80DE80EF800A
:1011D000F884C0928502D0928602E0928702F09253
:1011E000880220916D0230916E0240916F02509101
:1011F0007002C301B2010E94AA0C209185023091B5
:10120000860240918702509188020E94BD0D6B01B9
:101210007C012091890230918A0240918B02509189
:101220008C02C501B4010E94BC0D20917502309161
:10123000760240917702509178020E94AA0C9B019D
:10124000AC01C701B6010E94BC0D6B017C01980185
:101250004A8559850E94CA0E1816B4F00091910271
:1012600010919202209193022A873091940239873B
:1012700098014A855985B601C7010E94440C87FD33
:1012800003C08601EA86F986E0917D02F0917E0234
:10129000C801AA85B98580839183A283B383809294
:1012A000890290928A02A0928B02B0928C02C9802D
:1012B000DA80EB80FC80C0928102D0928202E092C0
:1012C0008302F09284020E94BB020091B20110914D
:1012D000B3012091B4013091B5016B017C01C01ABA
:1012E000D10AE20AF30A48E8C41643E1D406E1044D
:1012F000F10408F44AC06093B2017093B301809383
:10130000B4019093B5016091AE017091AF018091ED
:10131000B0019091B10142E00E94100488E791E091
:101320000E94BD0360915502709156028091570250
:101330009091580242E00E94100488E791E00E94D8
:10134000BD030E943B0342E00E94100488E791E045
:101350000E94BD0320E030E04AE754E46091590266
:1013600070915A0280915B0290915C020E94290E5A
:1013700020E030E048EC52E40E94AA0C42E00E94D7
:10138000100486E391E00E94BD030E94BB0200911D
:10139000AA011091AB012091AC013091AD01AB01DC
:1013A000BC01401B510B620B730B493E534061055E
:1013B000710570F0D901C80188519C4FAF4FBF4FE4
:1013C0008093AA019093AB01A093AC01B093AD01BF
:1013D000C0905902D0905A02E0905B02F0905C02FB
:1013E0000E94BB020091AA011091AB012091AC01B7
:1013F0003091AD01601B710B820B930B0E94490C65
:101400009B01AC01C701B6010E94440C87FF02C0DA
:1014100060E001C061E082E00E94CA010E94BB025C
:101420006B017C014090550250905602609057022B
:10143000709058028090AE019090AF01A090B001E2
:10144000B090B101A5019401C301B2010E94440C06
:10145000882309F472C08091A6019091A701A09100
:10146000A801B091A901A7019601281B390B4A0BCD
:101470005B0BDA01C90180379741A105B10500F185
:10148000A5019401C301B2010E94440C87FF18C05A
:1014900020E030E040E85FE3C301B2010E94BD0DEF
:1014A00060935502709356028093570290935802AE
:1014B000C092A601D092A701E092A801F092A901E2
:1014C0008091A6019091A701A091A801B091A901D6
:1014D000A7019601281B390B4A0B5B0BDA01C901E6
:1014E00080379741A105B10540F1409055025090D9
:1014F00056026090570270905802A5019401C301F2
:10150000B2010E94CA0E1816C4F420E030E040E890
:101510005FE3C301B2010E94BC0D6093550270935A
:1015200056028093570290935802C092A601D0921F
:10153000A701E092A801F092A9010E9497015DCD58
:1015400086EB91E00E94D5008A3089F09091840169
:10155000E92FF0E0EB57FE4F808381E0890F803266
:1015600018F48093840149CD3092840146CDE091F6
:101570008401F0E0EB57FE4F10821092840120921C
:10158000A5013BCD662777270C94C60AA0E0B0E002
:10159000ECECFAE00C947A0DEC017B01611571051D
:1015A00019F0DB018D939C938E010F5F1F4F7880A4
:1015B000872D90E00E94230C892B11F0E801F4CFD5
:1015C000BDE27B1205C00F5F1F4F7980C1E008C0EC
:1015D000EBE27E1204C08E010E5F1F4F7980C0E0E7
:1015E0006801F1E0CF1AD10843E050E060E770E015
:1015F000C6010E942C0C892BF1F4680122E0C20E76
:10160000D11C45E050E06BE670E0C6010E942C0C56
:10161000892B21F4680187E0C80ED11CE114F10484
:1016200019F0D701CD92DC92C111FFC060E070E0EB
:1016300080E89FE703C143E050E068E670E0C60140
:101640000E942C0C892B51F4E114F10409F4F2C02E
:101650000E5F1F4FF70111830083ECC0680160E04B
:1016600070E0CB0100E010E0F601D0EDD70DDA30EC
:1016700058F52C2F2260622E2C2F2870C2FF05C037
:10168000211128C00F5F1F4F25C0222311F00150E8
:101690001109A5E0B0E09B01AC010E946B0D4B016C
:1016A0005C01880C991CAA1CBB1CC501B4016D0F00
:1016B000711D811D911D6839A9E97A078A07A9E181
:1016C0009A0740F0C66005C0DE3F51F4C3FD44C038
:1016D000C8606C2EBFEFCB1ADB0A7080C62DC4CF5A
:1016E0002D2F2F7D2531C1F540814D3211F4C06180
:1016F00006C04B3221F0319621E030E006C0329630
:10170000D60111964C9122E030E0A0EDA40FAA3052
:1017100018F0E21BF30B20C040E050E04038BCE082
:101720005B075CF49A01220F331F220F331F420F15
:10173000531F440F551F4A0F511D3196DF0111975A
:101740002C91A0EDA20FAA3048F3C4FF03C051951D
:1017500041955109040F151FC1FF07C0E114F104A1
:1017600021F03197D701ED93FC930E94490CC3708F
:10177000C33019F06B017C0106C06B017C01F7FAE4
:10178000F094F7F8F09420E030E0A901C701B60129
:101790000E94440C882309F445C017FF06C0119528
:1017A00001951109C7E8D0E002C0CFE9D0E05E01A1
:1017B000B8E1AB1AB1084601BE2DAF2D90E2E92E7B
:1017C000F12C0E151F0584F0FE01259135914591F0
:1017D0005491B4018B2F9A2F0E94AA0C4B01B82F61
:1017E000A92F0E191F09EDCF2497F594E794CA1578
:1017F000DB0539F76401EB2EFA2E8E2D880F8F2D25
:10180000881F8F3F49F020E030E0A901C701B601F1
:101810000E94440C811106C082E290E090939F02E6
:1018200080939E02C701B60109C060E070E080E8C5
:101830009FEF04C060E070E080EC9FE7CDB7DEB7BB
:10184000EEE00C94960D91110C94170D803219F066
:1018500089508550C8F70895FB01DC014150504084
:1018600088F08D9181341CF08B350CF4805E65918D
:1018700061341CF06B350CF4605E861B611171F3F2
:10188000990B0895881BFCCF0E94860C08F481E018
:101890000895E89409C097FB3EF490958095709563
:1018A00061957F4F8F4F9F4F9923A9F0F92F96E9AC
:1018B000BB279395F695879577956795B795F11121
:1018C000F8CFFAF4BB0F11F460FF1BC06F5F7F4FBE
:1018D0008F4F9F4F16C0882311F096E911C07723D0
:1018E00021F09EE8872F762F05C0662371F096E8D9
:1018F000862F70E060E02AF09A95660F771F881FA8
:10190000DAF7880F9695879597F90895990F00084B
:10191000550FAA0BE0E8FEEF16161706E807F907C1
:10192000C0F012161306E407F50798F0621B730B5C
:10193000840B950B39F40A2661F0232B242B252BDD
:1019400021F408950A2609F4A140A6958FEF811D80
:10195000811D08950E94BD0C0C94310D0E94230D31
:1019600038F00E942A0D20F0952311F00C941A0DE6
:101970000C94200D11240C94650D0E94420D70F3FF
:10198000959FC1F3950F50E0551F629FF001729F24
:10199000BB27F00DB11D639FAA27F00DB11DAA1F33
:1019A000649F6627B00DA11D661F829F2227B00D80
:1019B000A11D621F739FB00DA11D621F839FA00D0B
:1019C000611D221F749F3327A00D611D231F849F5B
:1019D000600D211D822F762F6A2F11249F575040B2
:1019E0009AF0F1F088234AF0EE0FFF1FBB1F661F2D
:1019F000771F881F91505040A9F79E3F510580F0F6
:101A00000C941A0D0C94650D5F3FE4F3983ED4F3EB
:101A1000869577956795B795F795E7959F5FC1F799
:101A2000FE2B880F911D9695879597F90895992714
:101A30008827089597F99F6780E870E060E008952F
:101A40009FEF80EC089500240A94161617061806D6
:101A50000906089500240A941216130614060506B2
:101A60000895092E0394000C11F4882352F0BB0F43
:101A700040F4BF2B11F460FF04C06F5F7F4F8F4FA6
:101A80009F4F089557FD9058440F551F59F05F3FE1
:101A900071F04795880F97FB991F61F09F3F79F090
:101AA00087950895121613061406551FF2CF469512
:101AB000F1DF08C0161617061806991FF1CF869594
:101AC0007105610508940895E894BB276627772778
:101AD000CB0197F908950E94AD0DA59F900DB49F7D
:101AE000900DA49F800D911D112408952F923F9277
:101AF0004F925F926F927F928F929F92AF92BF921E
:101B0000CF92DF92EF92FF920F931F93CF93DF93C9
:101B1000CDB7DEB7CA1BDB0B0FB6F894DEBF0FBE26
:101B2000CDBF09942A88398848885F846E847D8473
:101B30008C849B84AA84B984C884DF80EE80FD8075
:101B40000C811B81AA81B981CE0FD11D0FB6F894EB
:101B5000DEBF0FBECDBFED010895A29FB001B39FC0
:101B6000C001A39F700D811D1124911DB29F700DA6
:101B7000811D1124911D08955058BB27AA270E944A
:101B8000D40D0C94310D0E94230D38F00E942A0DC3
:101B900020F039F49F3F19F426F40C94200D0EF434
:101BA000E095E7FB0C941A0DE92F0E94420D58F3C3
:101BB000BA17620773078407950720F079F4A6F532
:101BC0000C94640D0EF4E0950B2EBA2FA02D0B0192
:101BD000B90190010C01CA01A0011124FF27591B72
:101BE00099F0593F50F4503E68F11A16F040A22F78
:101BF000232F342F4427585FF3CF469537952795E9
:101C0000A795F0405395C9F77EF41F16BA0B620BE7
:101C1000730B840BBAF09150A1F0FF0FBB1F661F2E
:101C2000771F881FC2F70EC0BA0F621F731F841F71
:101C300048F4879577956795B795F7959E3F08F097
:101C4000B0CF9395880F08F09927EE0F9795879559
:101C500008950E943D0E0C94310D0E942A0D58F0FB
:101C60000E94230D40F029F45F3F29F00C941A0DD7
:101C700051110C94650D0C94200D0E94420D68F3D7
:101C80009923B1F3552391F3951B550BBB27AA2735
:101C900062177307840738F09F5F5F4F220F331F6F
:101CA000441FAA1FA9F335D00E2E3AF0E0E832D037
:101CB00091505040E695001CCAF72BD0FE2F29D03A
:101CC000660F771F881FBB1F261737074807AB070C
:101CD000B0E809F0BB0B802DBF01FF2793585F4F81
:101CE0003AF09E3F510578F00C941A0D0C94650D56
:101CF0005F3FE4F3983ED4F3869577956795B79563
:101D0000F7959F5FC9F7880F911D9695879597F96D
:101D10000895E1E0660F771F881FBB1F62177307E6
:101D20008407BA0720F0621B730B840BBA0BEE1FFB
:101D300088F7E09508950E944A0D88F09F5798F023
:101D4000B92F9927B751B0F0E1F0660F771F881FC0
:101D5000991F1AF0BA95C9F714C0B13091F00E94DA
:101D6000640DB1E008950C94640D672F782F8827D7
:101D7000B85F39F0B93FCCF3869577956795B39501
:101D8000D9F73EF490958095709561957F4F8F4F70
:101D90009F4F08950E94860C08F48FEF08950E94CB
:101DA000860C880B990B0895A1E21A2EAA1BBB1B67
:101DB000FD010DC0AA1FBB1FEE1FFF1FA217B30717
:101DC000E407F50720F0A21BB30BE40BF50B661F2D
:101DD000771F881F991F1A9469F7609570958095F1
:101DE00090959B01AC01BD01CF010895EE0FFF1F3F
:101DF0000590F491E02D0994CF93DF938230910503
:101E000010F482E090E0E091A202F091A30220E0C1
:101E100030E0C0E0D0E0309711F1408151814817A7
:101E20005907C0F04817590761F4828193812097C0
:101E300019F09B838A832BC09093A3028093A20204
:101E400026C02115310519F04217530718F49A01DD
:101E5000BE01DF01EF010280F381E02DDCCF21150F
:101E6000310509F1281B390B2430310590F4129605
:101E70008D919C9113976115710521F0FB0193835E
:101E8000828304C09093A3028093A202FD01329644
:101E900044C0FD01E20FF31F819391932250310959
:101EA0002D933C933AC02091A0023091A102232BA4
:101EB00041F420910201309103013093A10220935B
:101EC000A00220910001309101012115310541F45A
:101ED0002DB73EB74091040150910501241B350BED
:101EE000E091A002F091A102E217F307A0F42E1BEB
:101EF0003F0B2817390778F0AC014E5F5F4F24176E
:101F0000350748F04E0F5F1F5093A1024093A00287
:101F10008193919302C0E0E0F0E0CF01DF91CF9197
:101F200008950F931F93CF93DF93009709F48CC00C
:101F3000FC013297138212820091A2021091A30237
:101F40000115110581F420813181820F931F2091A9
:101F5000A0023091A1022817390779F5F093A10268
:101F6000E093A00271C0D80140E050E0AE17BF0777
:101F700050F412962D913C911397AD012115310526
:101F800009F1D901F3CF9D01DA0133832283608106
:101F90007181860F971F8217930769F4EC012881DE
:101FA0003981260F371F2E5F3F4F318320838A816F
:101FB0009B8193838283452B29F4F093A302E093C2
:101FC000A20242C01396FC93EE931297ED01499141
:101FD00059919E01240F351FE217F30771F4808198
:101FE0009181840F951F029611969C938E93828106
:101FF000938113969C938E931297E0E0F0E0D801C2
:1020000012968D919C911397009719F0F8018C010D
:10201000F6CF8D919C9198012E5F3F4F820F931FB9
:102020002091A0023091A1022817390769F4309756
:1020300029F41092A3021092A20202C0138212820B
:102040001093A1020093A002DF91CF911F910F91F5
:102050000895A0E0B0E0EFE2F0E10C947A0DEC011D
:10206000009721F4CB010E94FC0EB8C0FC01E60FE2
:10207000F71F9C0122503109E217F30708F4ACC0A6
:10208000D9010D911C91119706171707B0F0053073
:10209000110508F49FC0C80104978617970708F434
:1020A00099C002501109061B170B019311936D93F0
:1020B0007C93CF010E94910F8DC05B01A01AB10AE1
:1020C0004C01800E911EA091A202B091A30240E0AB
:1020D00050E0E12CF12C109709F44AC0A815B9057D
:1020E000D1F56D907C901197630182E0C80ED11CF0
:1020F000CA14DB0480F1A3014A195B096A0182E07A
:10210000C80ED11C1296BC9012971396AC91B5E0F4
:10211000CB16D10440F0B282A38351834083D9010E
:102120006D937C930AC00E5F1F4FC301800F911FF8
:10213000F90191838083EB2DFA2FE114F10431F042
:10214000D7011396FC93EE93129744C0F093A30229
:10215000E093A2023FC08D919C91119748175907B7
:1021600008F4AC017D0112960D90BC91A02DB3CF67
:102170008091A0029091A10288159905E1F446177B
:102180005707C8F48091000190910101009741F434
:102190008DB79EB74091040150910501841B950BAA
:1021A000E817F907C8F4F093A102E093A002F9013F
:1021B000718360830FC0CB010E94FC0E7C010097ED
:1021C00059F0A801BE010E94F810CE010E94910FA3
:1021D000C70104C0CE0102C080E090E0CDB7DEB7F9
:1021E000EEE00C94960D81E090E0F8940C940811C8
:1021F000FB01DC0102C001900D9241505040D8F724
:102200000895FB01DC0101900D920020E1F7089593
:04221000F894FFCF70
:102214000000A4028000000000002E01AA00F700C4
:10222400D500E90075016E616E00696E66006F7617
:10223400660050494420436F6E74726F6C6C657213
:102244002054657374000D0A00536574706F696ED1
:10225400740920576F726B696E67205350092054BC
:10226400432054656D7009204F7574707574005364
:102274006574706F696E74206368616E676564204D
:0A228400746F202E2E2E200009009A
:00000001FF
